:1000000027C1000042C1000040C100003EC1000005
:100010003CC100003AC1000038C1000036C10000F8
:1000200034C1000032C100000C94421A0C940E1B23
:100030000C94BE152AC1000028C1000026C1000092
:1000400024C1000022C1000020C100001EC1000028
:100050001CC100000C94351618C1000016C1000028
:1000600014C1000012C1000010C100000EC1000048
:100070000CC100000AC1000008C1000006C1000058
:1000800004C1000002C1000000C10000FEC0000069
:10009000FCC00000FAC00000F8C00000F6C000007C
:1000A000F4C00000F2C00000F0C000006800690069
:1000B0006A006B006C006D006E006F0070007100D4
:1000C000720073007400900091001C0374006100C2
:1000D0006300680079006F006E006D0061006300CE
:1000E00072006F003200000018034F006C007900AE
:1000F0006D007000690061002000430061006F0026
:1001000000000403090409023B00020100A0FA09EF
:100110000400000103010100092111010001224432
:100120000007058103080001090401000103000024
:100130000009211101000122B800070582032000F7
:10014000011201000200000008EDFE0000000101A4
:1001500002000105010902A10185020901A10005B2
:100160000919012908150025019508750181020565
:1001700001093009311581257F950275088106092D
:10018000381581257F950175088106050C0A38020E
:100190001581257F950175088106C0C0050109807C
:1001A000A10185031A01002A8F00160100268F0085
:1001B000950175108100C0050C0901A10185041984
:1001C000012AA002150126A002950175108100C028
:1001D00005010906A1018506050719E029E71500B3
:1001E00025019508750181020507190029EF150001
:1001F000250195F07501810205081901290595056C
:1002000075019102950175039101C005010906A1CF
:1002100001050719E029E7150025019508750181F9
:10022000029501750881010507190029FF150026AF
:10023000FF009506750881000508190129051500BC
:100240002501950575019102950175039101C00085
:1002500011241FBECFEFDAE0DEBFCDBF11E0A0E07A
:10026000B1E0E4E4FBE302C005900D92AE38B107C3
:10027000D9F722E0AEE8B1E001C01D92A538B2077F
:10028000E1F70E94350F0C944E1DBACE811114C0B7
:10029000633090F4453080F4E42FF0E085E0689F0F
:1002A000E00DF11D1124EE0FFF1FE455FF4F859166
:1002B0009591282F822F089521E090E0FBCFE6CF83
:1002C000089581E0089581E00895FBCF089581E0CD
:1002D000089581E00895FDCF089508950895FDCF14
:1002E000089508950895A6E0B0E0E9E7F1E00C94E0
:1002F000CA1C49835A839E833091950189819A81D2
:10030000311117C03E81311589F0211579F0F8D4EB
:10031000182F682F89819A81D2D469817A81812F9F
:100320000E94770C2696E3E00C94E61CD9D4182F93
:10033000F4CFE6D469817A81F3CFFC01262F408186
:1003400051816281738184819581CDCFCF93DF9379
:10035000EC0161E0F2DFBE01B6DF811529F061E05A
:10036000CE01EBDFBE01B1DFDF91CF9108950F9396
:100370001F93CF93DF93EC0160E0DFDF8C01BE01C0
:10038000ADDFBE01C801ABDFDF91CF911F910F91AF
:1003900008950F931F93CF93DF93EC0161E0CDDFBE
:1003A0008C01BE0194DF811106C080E0DF91CF9106
:1003B0001F910F910895BE01C8018DDF8115A9F32A
:1003C000BE01C8010E941013811579F3BE01C80156
:1003D0000E948A0F811549F3BE01C8010E94630F74
:1003E000811519F3BE01C8010E947A0D8115E9F249
:1003F000BE01C8010E948C0D8115B9F2BE01C80171
:100400000E94A60DD3CF21E030E002C0220F331F9F
:100410008A95E2F7C9018EC3CF93C82F81E090E09F
:100420000C2E02C0880F991F0A94E2F70E949F0ABF
:100430008C2FE9DFCF91089581E0089581E0089540
:10044000FBCF0895CF93C82F24D38C2FF7DF8C2FA9
:10045000F7DFCF91089581E0F5DF0C94591680E025
:10046000F1DF0C946A163DDF0E94661517C018D0A4
:1004700039DF0C946A1581E008950895CF93DF93D6
:10048000D82FF9DFC82F811511F08D2FF6DF8C2FB3
:10049000DF91CF9108950895F1CF089580E0FCCFCA
:1004A0000E945E13F9CFCF930E945E13C82F8091F4
:1004B00090018C1771F0C09390010E9429166093EF
:1004C00091017093920180939301909394018C2FEA
:1004D000E3DFCF910895ADE0B0E0E1E7F2E00C9406
:1004E000CB1C488759876A877B878C879D879111AA
:1004F00015D71F8286E0FE0138969E012F5F3F4F81
:10050000D90101900D928A95E1F78D8181110CC07E
:1005100029813A814B815C816D817E818F8149D6B1
:100520002D96E2E00C94E71CCE0101960FDF8111BD
:10053000EFCFF6CFFC012481213019F48081918125
:1005400012C40895611521F00E94E3100C949811D3
:100550000E942311FBCFCF93C82F811581F08450C7
:10056000813A78F48C2F0E941214811521F08C2F7F
:100570000E94AF145ED78C2F0E9498145AD7CF9147
:1005800008958C2F805E883048F481E0C1FD84E0BE
:10059000C0FD880FC2FD8295A2D6F0CF8C2F855A60
:1005A000833030F48C2F8452990B0E949E13E7CF36
:1005B000EC2FE85AEB3150F4F0E0EE0FFF1FE65E4F
:1005C000FE4F808191810E94C513D9CF8C2F8D5C05
:1005D0008331A8F661E08C2FB5DFD1CF811559F1B9
:1005E000982F9450913A18F40E94AF1422C7982F74
:1005F000905E983050F4982F81E091FD84E090FD5A
:10060000880F92FD829571D6F1CF982F955A93302D
:1006100020F480E090E00C949E13982F985A9B3120
:1006200020F480E090E00C94C513982F9D5C9331EA
:1006300010F460E087CF08951F93CF93DF93182FB6
:10064000EB0189DF209731F4812FC8DFDF91CF9153
:100650001F9108958FE99FE00197F1F700C0000016
:100660002197F0CF60E570E0893311F060E070E031
:10067000E3CF811511F033D6DCC60895811511F052
:1006800034D6D7C60895A0E0B0E0E9E4F3E00C94D6
:10069000C51C6C01D62FC72FFC0115810681029560
:1006A0000F7012D6E82E8115E9F0E12E1115D1F068
:1006B0008C2F807F803461F08D2F805E8830E0F059
:1006C0008C2F807E803221F4D230B0F00115A1F061
:1006D00080916D0282FF10C082E0CFD6F5D591E007
:1006E0008927E82EEC2FE295EF70C03C78F5F0E01A
:1006F000E05BF24E0C94B51CE12CF4CF0C2F0F7084
:10070000C03110F00295007F111581F0011549F0FC
:100710008D2F805E883010F0D11105C0802FDFD57D
:1007200088D68D2F40C0802FEBD5FACF8D2F56DF86
:10073000011561F08D2F805E883010F0D11103C05B
:10074000802FD3D502C0802FE1D573D6E11409F4F0
:10075000B3C0B6D580FDB0C0F6011582ABD51AD2B4
:10076000C60168D1A7D524D2A7C08C2F8F70F82ED0
:10077000C07FC03219F0F29480EFF822D13038F007
:1007800079F1111509F438C00115C9F0CACF80916B
:100790006D0282FD10C0111541F0F11419F08F2D7A
:1007A0009ED547D680E0D7DED1CF80E017DFF114A9
:1007B00069F28F2DC6CF111551F0013018F48F2D2D
:1007C00058DFC4CF09F0C2CF8F2DBCD5BFCF0111E8
:1007D000BDCF8F2D53DF8F2DC0D58F2DA5D5B6CF93
:1007E000111521F0063008F0B1CFE9CF053008F03F
:1007F000ADCF8F2D43DFAACF0115D9F3D93349F4FB
:100800008FEF97EE23E0815090402040E1F700C049
:1008100000008D2FE3DE9ACF8C2F8695869583700E
:10082000813060F009F092CF8D2F9C2F93701111C1
:1008300002C080E090E00E94C51388CF8D2F9C2FCE
:100840009370111102C080E090E00E949E137ECF51
:10085000612F8D2F77DE7ACF8C2F8370C1F5111128
:1008600028C04D2F429546954770440F440F2D2FB9
:100870002F7030E0042E02C0220F331F0A94E2F7DB
:1008800080E090E0D4FF09C08FE090E002C0880FC4
:10089000991F4A95E2F780959095C695C695C370C5
:1008A000822B932BC23079F0C33079F0C13049F0FC
:1008B0004AD10E945E13F0DDCDB7DEB7E8E00C94BC
:1008C000E11C3AD1F6CF46D1F4CF34D1F2CF111595
:1008D00059F1C0FFEECF4D2F429546954770440F1A
:1008E000440F2D2F2F7030E0042E02C0220F331F33
:1008F0000A94E2F780E090E0D4FF09C08FE090E036
:1009000002C0880F991F4A95E2F780959095C69589
:10091000C695C370822B932BC23061F0C33061F057
:10092000C13031F06AD1C5CF823008F4C2CFD3CF05
:100930005DD1BFCF69D1BDCF1AD1BBCFCF7011155B
:1009400029F08C2F27D18D2F94DEB3CF8D2F96DEFB
:100950008C2F2ED1AECFD23F31F168F4D03FC1F011
:10096000D13F89F0111509F43EC0011509F438C0D2
:100970008D2FF1DD9ECFD33FE1F0D43F99F78091E9
:100980006D0282FD1EC08C2F8F71111511F30FC0E7
:10099000111539F0053008F08CCF8C2F8F7118D1DC
:1009A00088CF0630F8CF8C2F8F711111D2CFF2D0B3
:1009B00080CF111521F08C2F8F71E3D07ACFDED04C
:1009C00078CF111529F063E08C2F8F713FD571CF4F
:1009D00081E053D5023008F46CCF82E04ED569CF68
:1009E0008C2F8F71E4CF011571F0D93349F48FEF5B
:1009F00097EE23E0815090402040E1F700C00000D6
:100A00008D2FECDD56CF8C2F8F71A3CF0F931F93BB
:100A1000CF93DF93EC01688179818D81ADD18C0119
:100A2000FAD087D0B801CE012EDEDF91CF911F9191
:100A30000F910895CF93DF93EC018C81811581F0A4
:100A4000CE01A7DC81110FC03FD4811549F08D8103
:100A5000811531F080916D0282FF02C082E00DD5D8
:100A6000DF91CF910895CE01D1DFCE0180DCF8CFA8
:100A700080E090E00E949E1380E090E00E94C51309
:100A80004DD4D7D40E94B1110C9498110E94C61471
:100A9000EFCF33D4FBCF282F92959F70963099F0EB
:100AA00060F4925F9F70923030F4203FB1F038F4E0
:100AB00081E0283E38F080E008959A5FF3CF81E02E
:100AC000243FC9F7089591E0813F09F090E081E06B
:100AD000283E08F080E0892B089581E00895FC010C
:100AE0002481211521F0808191813DD1D4CF80E0F6
:100AF0000895A6E0B0E0EFE7F5E00C94CB1C269655
:100B0000E2E00C94E71CA7E0B0E0E9E8F5E00C9423
:100B1000CB1C2796E2E00C94E71C0895FECF0895C5
:100B2000FDCF0895FADFFCDF8093A0019093A1012F
:100B300008950895F7CF08952091A0013091A10163
:100B4000822B932BEFCF2091A0013091A101822322
:100B50009323E8CF2091A0013091A1018227932710
:100B6000E1CFDBCF0895FDCF0895D7CF0895FDDF06
:100B7000FADF80939E0190939F01089580E090E0BA
:100B8000F6CF21E030E002C0220F331F8A95E2F752
:100B9000C901EDCF21E030E002C0220F331F8A955A
:100BA000E2F780919E0190919F01822B932BDFCFE2
:100BB00021E030E002C0220F331F8A95E2F7209532
:100BC000309580919E0190919F0182239323CFCFF6
:100BD00021E030E002C0220F331F8A95E2F78091B6
:100BE0009E0190919F0182279327C1CF20919E0162
:100BF00030919F01822B932BBACF20919E0130918F
:100C00009F0182239323B3CF20919E0130919F01B6
:100C100082279327ACCF0895CF93C1E061FDC4E054
:100C200060FDCC0F62FDC29593E0769567959A952D
:100C3000E1F7660F771F660F771F460F571FFA0100
:100C400040E050E090E06191DF019C01042E02C081
:100C5000369527950A94E2F72695220B26272C2312
:100C600026272E934F5F5F4F4430510561F7CF9198
:100C70000895A82FA77023E0969587952A95E1F708
:100C8000880F991F880F991F680F791FFB0140E09B
:100C900050E080E0219130E00A2E02C03695279581
:100CA0000A94E2F72170042E01C0220F0A94EAF799
:100CB000822B4F5F5F4F4430510561F70895262F17
:100CC000933068F4853058F4682F70E085E0989F81
:100CD000600D711D112446E951E0822F9DCF0895CA
:100CE000292F933058F4853048F490E066E971E09C
:100CF00035E0239F800D911D1124BBCF80E0089526
:100D0000CF92DF92FF920F931F93CF93DF936C01EB
:100D100000919E0110919F018091A0019091A101ED
:100D2000082B192BCFE0D0E081E090E00C2E02C020
:100D3000880F991F0A94E2F780239123892B61F48D
:100D4000219790F7F12C8F2DDF91CF911F910F916B
:100D5000FF90DF90CF900895FC2EB6018C2FD2D556
:100D6000019771F3F0CFCF93DF93EC01C9DFBE01A0
:100D7000C9D5DF91CF9108951F93CF93DF93EB01F6
:100D800090919501911531F0CB01EDDFDF91CF917D
:100D90001F910895811551F0CB01B2DF182F682FF4
:100DA000CE018DDFBE01812FADD5F0CFCB0198DF15
:100DB000182FF8CF0F931F930091A2018091A301E8
:100DC000801303C01F910F91089587E0089FF001E1
:100DD0001124EC55FE4F2081318142815381648181
:100DE0007581868190DE0F5F1F4F0770E7CF2091DE
:100DF000DC013091DD014091DE015091DF01609115
:100E0000E0017091E1018091E2017DCE8091E201EB
:100E1000803170F48091E101811551F0E091A201DF
:100E20002091A3013091DD014091DC012E1301C01E
:100E30000895BF0187E0E89FF0011124DF01AC5560
:100E4000BE4F14968C911497811549F111968C918F
:100E50001197831324C08C91841321C015968C9113
:100E6000159781111CC012968D919D91A091DE0164
:100E7000B091DF018A1B9B0B883C910580F4809127
:100E8000E2018F7080618093E201E655FE4F808120
:100E90008F70806180838CED91E0CCDD8BCF6F5FB4
:100EA0007F4FFB01E770C2CFE091A2019091A301B7
:100EB000E91302C080E008959F0157E0E59FF0012B
:100EC0001124EC55FE4F5181561306C05081581322
:100ED00003C05581541305C02F5F3F4FF901E770E0
:100EE000E7CF81E008958F929F92AF92BF92DF92F9
:100EF000EF92FF920F931F93CF93DF93CDB7DEB79F
:100F00002D970FB6F894DEBF0FBECDBF8C0186E0E3
:100F1000F801DE01189601900D928A95E1F7F8012B
:100F2000F58084819CED892E91E0992E9091E001CD
:100F3000911117C0811509F4EFC0F11409F42EC105
:100F4000C801CDDD811509F429C187E0F801D4017C
:100F500001900D928A95E1F7C401ECDA57DF47DF83
:100F6000DBC0E080A280B380D090E1012091DE015F
:100F70003091DF01A501421B530BD11409F4CFC0FE
:100F8000483C510508F09EC0811509F4C5C09091F8
:100F9000DD0191808091E201803108F065C09912F5
:100FA00026C09091DC019E1122C0F11057C08F70B5
:100FB00080618093E2011BDF8CED91E03BDD80914D
:100FC000E201F8018683F12C8F2D2D960FB6F8944F
:100FD000DEBF0FBECDBFDF91CF911F910F91FF906C
:100FE000EF90DF90BF90AF909F908F900895F11099
:100FF00035C040E0692D8E2D57DF40E0692D8E2DE4
:1010000053DFF82E8111DFCF88859985ACDE292F3B
:1010100022952F70903450F49F70223078F0911503
:1010200091F0F8019681903170F4CECF2A5F2F7045
:10103000223070F0C801FEDCFD2CC6CF911519F0EE
:10104000811509F4C1CF805E883008F4BDCFF2CF9E
:10105000803F08F4B9CF815F8330F7CF8091E20100
:1010600081608093E201AFCF991207C09091DC01BB
:101070009E1103C0F11409F473C0C80130DD81155D
:1010800009F48CC0F11409F489C08091E201803226
:1010900080F02091DC013091DD0129833A83AB821D
:1010A000BC829091E0019D831E828F83CE010196C8
:1010B000C1DC87E0F801ACEDB1E001900D928A95BA
:1010C000E1F74CCF9091E201903188F44885598541
:1010D0006A857B858C859D850CDD8CED91E0AADC95
:1010E000F40187E011928A95E9F781DE6CCF8115D2
:1010F00099F02091DD0181812813BFCF8091DC011F
:101100008E11BBCFF110B9CF9683C80193DCF401E7
:1011100087E011928A95E9F7FF24F39455CF483C74
:10112000510508F03EC08115B9F3F114B9F1909161
:10113000DD018181981329C08091DC018E1125C0C9
:101140008091E20180FD18C08031B0F08683807FFD
:10115000803F39F08681982F907F905F8F70892B28
:101160008683C80167DC87E0F801ACEDB1E001904F
:101170000D928A95E1F7F3CE87E0F801ACEDB1E08E
:1011800001900D928A95E1F7C7CFC801A8DC8111C3
:1011900090CF8091E20181608093E201C8014ADC36
:1011A000BBCF488559856A857B858C859D85A1DC6B
:1011B00097CFAEE0B0E0EFEDF8E00C94CA1C2887C2
:1011C00039874A875B876C877D878E87CE01089633
:1011D0008ADE6C85811599F0611539F0288539858D
:1011E0004A855B857D858E858EDC8091A2019091FC
:1011F000A30189133DC02E96E3E00C94E61C87E022
:101200009E01285F3F4FF90127503109D901019014
:101210000D928A95E1F7611541F3A091A3018A2F00
:1012200090E08395877090E0AC012091A201241793
:10123000150691F097E09A9FD0011124AC55BE4F4E
:101240009E012F5F3F4FF90101900D929A95E1F7B2
:101250004093A301AFDDC9CF1CDC1092A301109213
:10126000A201ECEDF1E087E011928A95E9F7BDCF9C
:1012700017E0189FC00111248C559E4F34DE811554
:1012800009F4B9CFE091A2011E9FF0011124EC55A1
:10129000FE4F208131814281538164817581868135
:1012A00032DC8091A2019091A30101968770809316
:1012B000A2019BCF80910B02869586958695089515
:1012C00080910B028770089590910B02977081E0D6
:1012D000911101C080E008958091370208959091A6
:1012E0003702982B9093370208958095982F80911C
:1012F00037028923809337020895109237020895A8
:1013000090913602982B9093360208958095982FED
:101310008091360289238093360208951092360216
:1013200008950895FECF089590910C02292F282347
:1013300029F08095892380930C02F4CF08950895B5
:10134000FECF089590910D02292F2823281721F010
:10135000982B90930D02F4CF089590910D02292FB0
:10136000282329F08095892380930D02E9CF0895E1
:1013700080910D02811521F010920D0280E0E0CFE6
:101380000895CF93C091370280913602C82B809187
:101390000D02811529F0C82B0E94EC138111E8DFA2
:1013A0008C2FCF910895CF93DF93C0910201D091FC
:1013B0000301E7DF8883C0910201D091030148E077
:1013C00050E063E072E0CE010E94061D892B59F0C7
:1013D00088E0FE01A3E0B2E001900D928A95E1F76A
:1013E000CE010E946D13DF91CF910895CF93DF93CB
:1013F000C0910001D0910101C4DF8983C091000137
:10140000D091010140E250E063EE71E0CE010E9414
:10141000061D892B59F080E2FE01A3EEB1E0019098
:101420000D928A95E1F7CE010E947A13DF91CF9158
:1014300008950E945713811529F080916C0287FF4F
:1014400001C0D4CFB0CF0895FECF089590916D0222
:1014500092FF0EC0982F990F990F990F962B90938A
:101460000B0298DB80910B02869586958695ECCFD2
:1014700091CB10920B0280E0E7CF90910B02809508
:10148000892380930B02282F277059F4891749F07C
:1014900090916D0292FF05C086958695869588DBB2
:1014A000E8CF089590916D0292FB222720F928172A
:1014B00049F080FB92F990936D028CE692E043D064
:1014C00082E0DBCF089580916D02002482FF0394B7
:1014D000802DE8CF81E0E6CF80E0E4CF80E090E0AF
:1014E000BC019BC380E090E0BC0191D3F7CFA3E0A7
:1014F000B0E0EDE7FAE00C94CB1C42D34DD31B8255
:10150000CE01039660D381E090E08093A001109219
:10151000A10165D3198284E18A83CE01019670D33B
:10152000E1DF2396E2E00C94E71CE1CF08953AC393
:10153000089527C308953CC308954BC308954FC32E
:10154000089552C308955CC308956DC30895089526
:10155000A6E0B0E0EEEAFAE00C94C91C0E941D1669
:101560008C0180913802909139028017910779F0AF
:1015700019821A820E941D16BC0149815A8180E09D
:1015800090E00E946B020093380210933902269675
:10159000E4E00C94E51C0E94291660933E027093CF
:1015A0003F02809340029093410260933A0270930D
:1015B0003B0280933C0290933D0208950895089564
:1015C000FDCF08950895FEDFFBCF0895FECF089567
:1015D0000895FEDFFBCF88E79DE057D4F0DFF3CF1F
:1015E00081E0089581E00895FBCF0895089508955E
:1015F0000895FCDFFCDFFCCF9CDF811101C095DF8B
:1016000082E492E098DF8CE692E09BDF5AD495DF8B
:1016100091DA80919E0190919F01A5DA98CF0E9466
:101620001416A0D3E9DF0E9455130E944B02D1CFBC
:10163000A6E0B0E0EEE1FBE00C94C21CD3DF811128
:101640000AC086DF0E945613ADD60E94530226962A
:10165000EBE00C94DE1C95D389E6A82E82E0B82E30
:10166000750110E0F7010081812FE8D21F5F133070
:1016700009F445C09FEFE91AF90A081799F3809118
:10168000420281FDE1D2B0DF982E10E0812FD6D248
:10169000F82EF50181915F01F81661F18F25D82EA2
:1016A00000E0EE24E3948D2D8E21F1F0CC24C39440
:1016B0008F2D8E2109F4C12C911489F0602F812F78
:1016C0000E948A1581110BC009831A830E941D167E
:1016D000BC0149815A8181E09C2D0E946B024C2DF6
:1016E000602F812F0E949E150F5FEE0C0530D9F6FA
:1016F000F501F2921F5F133049F64DDFA3CF0813B7
:10170000BECF9FCF0F931F93CF93DF93FDD0EC01FC
:10171000D23508F050C0D03508F0C8C0C03ED10561
:1017200030F5CD3CD10508F09DC0C83AD10578F41C
:10173000C53AD10508F093C0C130D105B1F1CE0151
:101740000497813A910588F1C0E0D0E02EC0CE0127
:10175000885A91094B97C0F7C85AD0E0CC0FDD1FCB
:10176000C05BDE4F0990D881C02DD4641EC0D03438
:10177000A8F4D03208F0ADC0C83ED105B0F0CE011B
:1017800091509F3108F78D2F62D1082F8C2F90E058
:10179000BBD0D02FDF71C82FD92B07C08C2F90E082
:1017A000B3D0DF70C82FD92BD06ACE01DF91CF9193
:1017B0001F910F910895C03882E5D807B8F5C0365B
:1017C00082E5D80708F056C0C03482E5D807C8F4CF
:1017D000C03282E5D80708F047C08C2F86958695E1
:1017E00020E2829FC0011124C37021E030E002C0DA
:1017F000220F331FCA95E2F7E901C82BD92BDD6808
:10180000D4CF8C2F86958695877020E2829FC00169
:101810001124C37021E030E002C0220F331FCA95AB
:10182000E2F7E901C82BD92BDC68BFCFC03C82E5C9
:10183000D80750F48C2F8F71C03AD24580F5982F7D
:1018400084EF906AEC01B1CFCE01805C9245809725
:1018500008F07ACFDC2FDF71C0EFD06AA6CFA49753
:10186000D064A3CFD065A1CF8C2F8F71D82FC1EFBB
:10187000D06A9BCF8C2F86958695877020E2829FB9
:10188000C0011124C37021E030E002C0220F331FD9
:10189000CA95E2F7E901C82BD92BDA6886CFD7D0F1
:1018A000982F80E09F71EC01D0627FCF8C2F8F71D9
:1018B000CED053E0CC0FDD1F5A95E1F7DF70282F13
:1018C00084FF04C090E1899F90011124C22FD06948
:1018D0006CCF8D2F8F71BBD0082F8C2F90E014D040
:1018E000302F3F71282F392B3062E9015ECF462F10
:1018F000733028F4653018F4672F0C945F0180E092
:1019000090E00895F4DFFECE803E9105D1F1C8F459
:101910008133910509F481C048F48932910509F4B5
:1019200071C08A32910509F47FC008958933910509
:10193000E1F082389105C9F08533910509F45DC065
:101940000895843E9105D1F148F4823E910531F12C
:10195000833E910541F181EE90E00895863E910528
:10196000C1F1873E9105F1F1089520916C02237039
:1019700009F064C020916D0223FF14C089E290E059
:10198000089520916C0220FD45C030916D0230FF1A
:1019900009C024FD24C083EE90E0089520916C02DC
:1019A00022FDF7CF089520916C0222FD44C03091B2
:1019B0006D0230FD43C024FFF5CF11C020916D02B0
:1019C00021FFF0CF80916C0284FD09C087EE90E08A
:1019D000089520916C0223FFE5CF24FFF7CF80E02C
:1019E00090E0089520916C0223FD2BC030916D0290
:1019F00031FFE1CF84EE90E0089520916C0225FF45
:101A0000D1CFBCCF20916C0225FD1EC020916D026C
:101A100023FFC8CF89E390E0089520916C0226FF50
:101A2000C1CF8AE290E0089520916C0226FFBACFE0
:101A300081E390E0089582EE90E0089580EE90E0DA
:101A4000089586EE90E0089585E390E008959091E2
:101A50006C0292FF10C041E0282F2471243009F05D
:101A600040E031E0282F2871283009F030E043179A
:101A700011F02CE0822793FF10C041E0282F247141
:101A8000243109F040E031E0282F2871283109F095
:101A900030E0431711F02CE0822730916D0230FFC7
:101AA00010C051E0282F2171213009F050E041E0B1
:101AB000282F2871283009F040E0541711F029E050
:101AC000822731FF10C041E0282F2171213109F018
:101AD00040E031E0282F2871283109F030E0431729
:101AE00011F029E0822794FF02C083FD877E0895CC
:101AF00080E00895CF939C01205E3245C1E0203202
:101B0000310538F4FB01C581C11103C08F710E94FA
:101B10000C028C2FCF9108959C01FB0185818115CA
:101B200099F02B359CE7390769F02C359CE739078C
:101B300021F02A353C4721F00895C5DC80E0089566
:101B4000C9DCFCCFC9DCFACF81E008959C01FB0120
:101B50008581811599F021309CE7390761F02330A8
:101B60009CE7390739F021153C4749F40E942B02C4
:101B700080E00895DCDC0E942F02FACF81E0089516
:101B8000089580E090E00E941B1D9C0181E0233EAF
:101B90003E4F09F080E0089563EE7EEF80E090E034
:101BA0000C943A1D6FEF7FEF80E090E00C943A1DAB
:101BB000CF93DF93EC0182E090E00E94131D8883B5
:101BC000DF91CF910895FC01608182E090E00C9458
:101BD000201D83E090E00E94131D90E00895682F7F
:101BE00083E090E00C94201DCF93DF93EC0184E020
:101BF00090E00E941B1D88839983DF91CF91089507
:101C0000FC016081718184E090E00C943A1DAB018D
:101C1000BC018FE090E00C94321DAB01BC0183E16C
:101C200090E00C94321D682F8EE090E00C94201D03
:101C30000895FECF08950895FECF0895E82FF0E0AF
:101C4000EF58FD4F80810895089580EA8A95F1F755
:101C5000089500C00895F9CF0895F894E82FE2950B
:101C6000EF70F0E041A18F7021E001C0220F8A9552
:101C7000EAF7922F9095942391A392A1822F892B1A
:101C800082A378940895CF93DF9381E9E6DF80E91A
:101C9000E4DF84E9E2DFC6E8D1E089918F3F09F013
:101CA000DCDF81E0CB38D807C1F7DF91CF91089511
:101CB000A0E0B0E0EEE5FEE00C94C51C6C01E62E61
:101CC000C62FD0E08E0105571E4FF80180818F3F4F
:101CD00009F441C0F894E82FE295EF70F0E091A18B
:101CE0008F7021E001C0220F8A95EAF7892F822B9D
:101CF00081A382A12095282322A37894AADFA6E8B5
:101D0000B1E031E0F12C2D912F3F79F0E22FE295F7
:101D1000EF70E05EF0E0808190E02F7002C095955A
:101D200087952A95E2F780FF1BC080E0F82A330FE1
:101D300081E0AB38B80739F7F80180818F3F09F0AF
:101D40008CDF61E0F11001C060E08E2D84DFF601D0
:101D5000EC0FFD1FF082CDB7DEB7E8E00C94E11C7C
:101D6000832FE4CF90DFE1E7F2E083E011928A95E0
:101D7000E9F7EEE6F2E083E011928A95E9F73AD0CE
:101D800058CFA3E0B0E0E7ECFEE00C94C81CFE01E5
:101D90003196DF0183E01D928A95E9F710E00E2F5E
:101DA000FF2E612F802F9F2D83DF1F5F1330C9F718
:101DB00043E050E0602F7F2D8EE692E00E94061DEA
:101DC00041E0892B69F440E061E772E08EE692E041
:101DD00012D0182F31DF812F2396E5E00C94E41CFC
:101DE00089819A81AB8180936E0290936F02A09358
:101DF0007002EACF0895EF92FF920F931F93CF9353
:101E0000DF938C017B01C42F411571F081E0809339
:101E1000450213D7809343029093440280E0CDB7EC
:101E2000DEB7E6E00C94E31CD0914502D115B1F386
:101E3000809143029091440291D6059778F343E054
:101E400050E0B801C7010E94061D892B41F083E0D4
:101E5000F801D70101900D928A95E1F7CD2F1092EC
:101E600045028C2FDCCFE4CB089581D60E949B17CE
:101E7000B2DB0E94B317D3DB0E94BC170E94BF17CE
:101E8000F2DF0E94D517B5DBF9CF80938E019093D6
:101E90008F0108954CCB089580E0D0DE81700895C5
:101EA00070DF8FEF96E721E0815090402040E1F70E
:101EB00000C0000066DFF0DF811511F0EBDFF9C62E
:101EC0000895EECF0895CF93DF93EB0186319C47C1
:101ED000F9F402DA9D81911591F08A7A91E08111ED
:101EE00001C090E090934602811539F085E320D53A
:101EF000A0DA80E0DF91CF91089589E2F8CF809158
:101F00004602811519F085E32AD5F2CF89E2FCCF8C
:101F100081E0F0CFCF93DF93EC01FB018581811548
:101F200009F4C8C09E0130572332310508F0A8C01B
:101F30008CE692E006DBFE01E150F047E232F1056B
:101F400020F4E45AF24E0C94B51C80916C0281602E
:101F500080936C028FC080916D02886080936D02C7
:101F600089C080916C028260F3CF80916C028460A2
:101F7000EFCF80916C028860EBCF80916D02816021
:101F8000EDCF80916D028260E9CF80916C0280611B
:101F9000DFCF80916C028062DBCF80916C02806425
:101FA000D7CF0E94490580916C028068D1CF809183
:101FB0006C028C60CDCF80916D028360CFCF809119
:101FC0006C028E7FC5CF80916D02877FC7CF8091D5
:101FD0006C028D7FBDCF80916C028B7FB9CF8091D9
:101FE0006C02877FB5CF80916D028E7FB7CF8091D5
:101FF0006D028D7FB3CF80916C028F7EA9CF8091CF
:102000006C028F7DA5CF80916C028F7BA1CF0E9447
:10201000490580916C028F779BCF80916C02837F02
:1020200097CF80916D028C7F99CF90916C02892F10
:102030008B7F92FF8460877F92FF886089CF809139
:102040006D02982F909590FB80F990FB81F986CFD7
:1020500090916C02892F8F7B96FF806479CF0E94CC
:10206000490590916C02892F97FB87F9805870CFB2
:1020700081E06BDA8CE692E066DA0E94490580E046
:10208000DF91CF91089580E0F4CF90916C02892F79
:102090008F7E94FF80615CCF90916C02892F8E7F40
:1020A00090FF816055CF90916D02892F877F93FFBC
:1020B000886054CF81E0E4CF382F25EB3203C00194
:1020C000112497FF04C080589109892F08958058E2
:1020D0009F4FFBCF80914D0280FF0DC060910901A1
:1020E00070E0660F771F6038710588F5611571051E
:1020F00081F1862F089581FF07C06091090184E076
:10210000689FB0011124EFCF82FF04C060910901E4
:1021100088E0F6CF90914C029115B9F060910801DA
:1021200080910901961728F098E0899FB001112449
:10213000DACF899FC001112423E0880F991F2A95C7
:10214000E1F770E00E94A21CCECF68E0D2CF8FE70B
:10215000089581E0089580914D0280FF0CC0609148
:10216000050170E075956795759567956115710521
:1021700041F1862F089581FF06C06091050170E04E
:1021800075956795F3CF6091050182FD0BC0909125
:102190004B029115A1F06091040180910501961701
:1021A00038F0682F70E06038710500F38FE708950C
:1021B000899FC001112470E00E94A21CF4CF61E04D
:1021C000D8CF81E00895E82FED5CE33198F5F0E099
:1021D000E258F24E0C94B51C7DDF8195809351023C
:1021E000089578DFFBCF76DF8195809350020895C4
:1021F00071DFFBCFB0DF809352020895ACDF819591
:10220000FACFA9DF8195809353020895A4DFFBCF15
:10221000815D990B21E001C0220F8A95EAF7809138
:102220004F02822B80934F02089580914D0281606E
:1022300080934D02089580914D028260F9CF809184
:102240004D028460F5CF409150028D3C59F480914D
:10225000510287FF0DC010925102411559F410929E
:102260004C0208C08E3C81F48091510218169CF3F8
:10227000411581F08091520290915302892B09F00F
:1022800056C010924B0208958F3C41F447FFF0CFA7
:1022900010925002809151028115E0CF803D19F4D7
:1022A0001416B4F3E5CF90915202893D29F4191622
:1022B000FCF610925202DCCF8A3D19F497FFD8CF7A
:1022C000F8CF909153028B3D29F497FFD1CF109214
:1022D0005302CECF8C3D19F41916CCF3C9CF982FE9
:1022E000915D983078F4815D990B21E001C0220F57
:1022F0008A95EAF7822F809590914F0289238093E7
:102300004F02B6CF8D3D31F480914D028E7F809388
:102310004D02AECF8E3D21F480914D028D7FF7CFDF
:102320008F3D09F0A5CF80914D028B7FF0CF0895AE
:1023300084D49C019091500280915102982B21F0FD
:102340002093490230934A029091520280915302A5
:10235000982B21F020934702309348028EE492E0BC
:10236000DBC1EEE4F2E086E011928A95E9F7109283
:102370004C0210924B0210924D020895FC01828192
:1023800081110EC0838181110BC08481811108C02D
:1023900091E08581811101C090E0892F81700895BD
:1023A00081E0FCCFA6E0B0E0E8EDF1E10C94C81CC0
:1023B00086E0EEE4F2E09E012F5F3F4FD9010190ED
:1023C0000D928A95E1F710925002109251021092EC
:1023D0005202109253028B819C81892B022FF32E83
:1023E000811581F08091490290914A02B7D3AC01E6
:1023F00090914C029115A1F180910A018417150664
:1024000008F43BC08D819E81892B89F08091470221
:1024100090914802A3D3AC0190914B02911509F41D
:102420005AC0809106018417150608F462C0602F17
:102430007F2D8EE492E0C2D2811104C08EE492E03E
:102440009DDF811175DF86E0E02FFF2DAEE4B2E065
:1024500001900D928A95E1F72696E5E00C94E41C34
:1024600020910B018AE0289F900111242417350741
:1024700048F69F5F90934C0202C09F3FD1F71B81AB
:10248000111551F027DE91E011160CF09FEF899F96
:10249000802D1124809350021C81111551F01ADEF9
:1024A00091E011160CF09FEF899F802D11248093ED
:1024B000510280915002811509F4A4CF109151026C
:1024C000111509F49FCFF8DD80935002812FF4DDC0
:1024D0008093510297CF209107018AE0289F9001B5
:1024E00011242417350708F0A2CF9F5F90934B0269
:1024F00002C09F3FD1F71D81111551F02CDE91E0F4
:1025000011160CF09FEF899F802D112480935202A9
:102510008E81182F811551F01EDE91E011160CF0FE
:102520009FEF899F802D1124809353028091520246
:10253000811509F47CCF90915302192F911509F45C
:1025400076CFBADD80935202812FB6DD809353029D
:102550006ECF0F931F93CF93DF93C42FD22FFC0125
:1025600085818115C9F04093560267D38093540248
:10257000909355028C2F805E883048F481E0C1FD35
:1025800084E0C0FD880FC2FD82950E943903DF916F
:10259000CF911F910F91089510915602141333C0DB
:1025A0008091540290915502D9D2883C910558F5FA
:1025B000CD2FC05E1D17C1F0812F805E883048F49A
:1025C00081E011FD84E010FD880F12FD82950E94CC
:1025D0003E03C83048F481E0D1FD84E0D0FD880F8F
:1025E000D2FD82950E943903802F0E94320381E040
:1025F000D1FD84E0D0FD880FD2FD8295C83038F639
:102600000E943E03C4CF8C2F805E883008F0BFCF7D
:1026100081E0C1FD84E0C0FD880FC2FD8295F0CF4E
:102620000F93FC01CB01E851FC47E730F10588F539
:10263000EF56F24E0C94B51C06E221EE41EE6AE133
:102640007CE787DF80E00F91089507E225EE45EEF5
:102650006BE17CE7F6CF06E221EE40EE68E17CE735
:10266000F0CF07E225EE44EE69E17CE7EACF06E22F
:1026700021EE42EE6CE17CE7E4CF07E225EE46EE88
:102680006DE17CE7DECF08E221E045EE6EE17CE71C
:10269000D8CFFB01858181111092560281E0D3CF02
:1026A00080935B0290935C02089508950895EDD1A4
:1026B000982F81E0913009F080E00895E0915B026D
:1026C000F0915C02309739F00190F081E02D309765
:1026D00011F00995089580E00895E0915B02F09172
:1026E0005C02309731F00280F381E02D309709F0E1
:1026F00009950895E0915B02F0915C02309759F0E2
:1027000024813581232B39F026E0DC012C930480D1
:10271000F581E02D09950895E0915B02F0915C024E
:10272000309759F026813781232B39F022E0DC01E4
:102730002C930680F781E02D09950895A3E0B0E081
:10274000E4EAF3E10C94CB1C2091590230915A0237
:1027500028173907B1F08093590290935A02E091FB
:102760005B02F0915C02309761F00084F185E02D0E
:10277000309739F023E029838A839B83CE01019629
:1027800009952396E2E00C94E71CA3E0B0E0EBECA3
:10279000F3E10C94CB1C209157023091580228177A
:1027A0003907B1F08093570290935802E0915B0291
:1027B000F0915C02309761F00084F185E02D309754
:1027C00039F024E029838A839B83CE010196099501
:1027D0002396E2E00C94E71CCF93DF93C0910201B3
:1027E000D091030164DF811521F080916C0287FD97
:1027F00011C09E012E5F3F4F96E080E09150F9019D
:1028000040812F5F3F4F41118F5F9111F7CFDF91D3
:10281000CF91089520910001309101012E5F3F4F2B
:102820009EE1EBCFCF93C82F811102C080E02EC074
:102830003EDF811521F080916C0287FD0FC08091F1
:10284000020190910301FC013296089620812C1719
:10285000F9F03196E817F907C9F7E8CF8C2F86957C
:1028600086958695C03F10F7E0910001F091010137
:10287000E80FF11D228130E0C77081E001C0880FB0
:10288000CA95EAF7282381E0232B81F2CF9108959E
:1028900081E0FCCF9C01FC01329680E09FEF4081FB
:1028A000461759F031969F3F19F4411101C0982FF6
:1028B0008F5F8630A1F79F3F09F40895290F311DDE
:1028C00097FD3A95F90162830895FC0132960896C6
:1028D0002191261302C0DF011E92E817F907C1F704
:1028E0000895262F269526952695603F60F4820F41
:1028F000911DFC01677021E001C0220F6A95EAF783
:102900008281822B82830895262F269526952695EF
:10291000603F68F4820F911DFC019DEF61FD97EF10
:1029200060FF959562FD9295828189238283089547
:10293000CF93C82FBCDE6C2F811559F080916C02AB
:1029400087FF07C08091000190910101CADFCF91FC
:10295000089580910201909103019CDFF8CFCF93FD
:10296000C82FA5DE6C2F811559F080916C0287FF6E
:1029700007C08091000190910101C6DFCF910895B9
:102980008091020190910301A0DFF8CF90DE8115C4
:1029900071F080916C0287FF0AC0E0910001F09114
:1029A000010132968EE111928A95E9F70895E0913E
:1029B0000201F0910301329686E0F5CFDC01FB01C4
:1029C00011969C9111978181981322C012968C9137
:1029D0001297811519F0928189131AC013968C9160
:1029E0001397811519F09381891312C015968C9154
:1029F0001597811519F0958189130AC014969C9139
:102A0000911521F081E02481291303C080E001C0E9
:102A100081E0817008950895FECF08958F5F8093BF
:102A20000F0160910C0170910D0180910E01909148
:102A30000F01F2CF83E080930F0160910C01709140
:102A40000D0180910E0190910F01E6CFE7CF08951F
:102A500081E080930F0160910C0170910D018091D4
:102A60000E0190910F01D8CFF3CF089591E081111D
:102A700001C090E090930E0160910C0170910D01E6
:102A800080910E0190910F01C7CF80910E010895A2
:102A900080930D0160910C0170910D0180910E01E8
:102AA00090910F01B9CF80910D01089580930C0191
:102AB00060910C0170910D0180910E0190910F01B8
:102AC000ABCF80910C01089508950895FECF08952D
:102AD00008950895F9CF08950F931F93CF93DF932F
:102AE000F7DF4FD9F6DF0DE512E0C0E0D0E08C2F24
:102AF000A5D8F80181938F0191E0811101C090E088
:102B0000D92BCF5FC33099F78D2FDF91CF911F91D4
:102B10000F910895E82FF0E0E35AFD4F808190E097
:102B200021E030E002C0220F331F6A95E2F728232C
:102B3000392381E0232B09F480E0089541110DC071
:102B4000E82FF0E0E35AFD4F21E001C0220F6A9523
:102B5000EAF720958081282320830895CF93DF937F
:102B6000EC016BD08C1B9D0BDF91CF91089585B745
:102B7000806885BF85B7806885BF08951F921FB69E
:102B80001F9211248F939F93AF93BF938091600204
:102B9000811113C08091740290917502A091760208
:102BA000B09177024196A11DB11D8093740290935C
:102BB0007502A0937602B0937702BF91AF919F9177
:102BC0008F911F901FBE1F90189580917C028430BA
:102BD00031F10E9433021092600288E190E020E41B
:102BE0000FB6F894A895809360000FBE2093600004
:102BF00083B7817F846083BF83B7816083BF78940C
:102C0000889583B78E7F83BF0FB6F894A89580917F
:102C10006000886180936000109260000FBE08958C
:102C20000E9449050C94370282E084BD93E095BD73
:102C30009AEF97BD80936E0008952FB7F894809116
:102C4000740290917502A0917602B09177022FBF25
:102C500008952FB7F8946091740270917502809175
:102C60007602909177022FBF089578941F921FB635
:102C70001F9211248F939F93AF93BF9380917402FF
:102C800090917502A0917602B09177020196A11DF4
:102C9000B11D8093740290937502A0937602B09355
:102CA0007702BF91AF919F918F911F901FBE1F9090
:102CB000189587E797E7809300089093010888E1CB
:102CC0009AE00FB6F894A895809360000FBE909399
:102CD0006000FFCF88E19AE00FB6F894A895809342
:102CE00060000FBE90936000FFCF9B01BA019091EE
:102CF0007C029430D9F48F708093E9009FEF80912B
:102D0000E80085FD06C085ED8A95F1F70000915039
:102D1000B1F78091E80085FF09C040E050E0C901AB
:102D2000B6D18091E8008E778093E800089543E063
:102D300050E0BC0182E0D9CF46E050E0BC0182E027
:102D4000D4CF40E250E0BC0182E0CFCFCF93DF93FD
:102D5000EC019BDE48E050E0BE0181E0C6DF88E088
:102D6000FE01A1E6B2E001900D928A95E1F7DF91B4
:102D7000CF91089580917B02811107C016D366D34D
:102D80008091E20084608093E200089510927B02BB
:102D900008955EDE81E06ACE6091780281E0611183
:102DA00001C080E047CE90917C0281E0943009F030
:102DB00080E0609178024ACE42E061EC81E071D21D
:102DC00042E261EC82E06DD290917C0281E094302D
:102DD00009F080E06091780221CE80917E028930F6
:102DE00081F148F4823009F496C0833009F457C069
:102DF000813041F008958A3009F480C08B3009F4A5
:102E000068C0089580917D02813A09F047C08091A1
:102E1000E800877F8093E800809181029091820290
:102E2000892B59F060E080E090E070E07DD18091E6
:102E3000E8008B778093E800089568E081E692E0EF
:102E4000F4CF80917D02813249F580918102909189
:102E50008202029718F58091E800877F8093E8004E
:102E60008091E80082FF16C02091F3008091F2006B
:102E7000922F029731F48091F100813011F0863069
:102E800019F48091F10004DE8091E8008B77809343
:102E9000E8003BC280917C028111E2CF08958091CD
:102EA0007D02813AD9F78091810290918202892B2B
:102EB000A9F78091E800877F8093E8008091E8007F
:102EC00080FFFCCFE2DD8093F1008091E8008E77F7
:102ED000DECF80917D02813209F78091810290914D
:102EE0008202892BD9F68091E800877F8093E800E1
:102EF0000CD280917F02BADD0C94490580917D024D
:102F0000813261F68091E800877F8093E800FDD1EF
:102F100080918002CBCD80917D02813A09F0BECFB5
:102F20008091E800877F8093E8008091E80080FF2F
:102F3000FCCFC7DDC8CF84B7877F84BF0FB6F894B6
:102F4000A895809160008861809360001092600075
:102F50000FBE80E890E00FB6F894809361009093E4
:102F600061000FBE81CD21D271D2E2EEF0E080810E
:102F7000846080837894CDC480E191E091CB80918E
:102F80007C02853029F480917C02853011F048CE96
:102F900008951BDEA1DD8115B1F380917A028115C0
:102FA00091F35FD00E944905EECF08959A014091B8
:102FB00083025091840200C0492F50E043305105F4
:102FC000C9F070F441305105E9F14230510571F416
:102FD0008BE390E046E051E0F9014083518308958E
:102FE00041325105E9F04232510519F180E090E09B
:102FF00040E0F2CF482F50E0813061F0423051057F
:1030000061F0E2E0F1E04115510581F7849190E033
:10301000AF01E2CFE8EEF0E0F9CFEAECF0E0F6CF76
:1030200061307105A0F011F789E090E041E351E0D3
:10303000D3CF6130710580F0C9F688EB90E043E5AD
:1030400051E0CACF82E190E041E451E0C5CF89E090
:1030500090E048E151E0C0CF84E490E04BE052E0E2
:10306000BBCF80E189BD82E189BD09B400FEFDCFFF
:103070008091D8008F7D8093D8008091E00082609D
:103080008093E0008091E00081FDFCCF0895AF9235
:10309000BF92CF92DF92FF920F931F93CF93DF9354
:1030A0006C01EB018A0150D1F82E811123C001156A
:1030B000110539F0F80180819181C81BD90BC80E28
:1030C000D91EA12CB12C2097A9F08091E80085FD94
:1030D00021C08091E8008E778093E80001151105EA
:1030E000A1F0F801808191818A0D9B1D80839183DD
:1030F00085E0F82E8F2DDF91CF911F910F91FF90DA
:10310000DF90CF90BF90AF9008951ED18115E9F266
:10311000F82EF0CFF60181916F018093F100219795
:103120008FEFA81AB80ACFCFFC012091830230910B
:1031300084022617370720F06115710569F09B019D
:1031400090E02115310571F491110CC08091E800D7
:1031500082FF38C080E008959091E8009E779093B8
:10316000E800EDCF80917C028115C1F18530C1F17D
:103170008091E80083FD30C08091E80082FDE6CFB9
:103180008091E80080FFDDCF8091F3004091F20054
:10319000582F2115310519F04830510558F091E0AC
:1031A0004830510509F090E04091E8004E77409397
:1031B000E800C7CF81918093F100215031094F5F22
:1031C0005F4FE7CF80917C02811541F0853041F05F
:1031D0008091E80083FFBACF81E0089582E00895EE
:1031E00083E00895FC012091830230918402261728
:1031F000370720F06115710569F09B0190E02115FA
:10320000310571F491110CC08091E80082FF39C042
:1032100080E008958091E8008E778093E800EDCFFC
:1032200080917C028115C9F18530C9F18091E80057
:1032300083FD31C08091E80082FDE6CF8091E800F7
:1032400080FFDDCF8091F3004091F200582F2115CF
:10325000310519F04830510558F091E048305105DA
:1032600009F090E08091E8008E778093E800C7CF66
:1032700084918093F1003196215031094F5F5F4F67
:10328000E6CF80917C02811541F0853041F080913C
:10329000E80083FFB9CF81E0089582E0089583E0DC
:1032A0000895982F973028F08F708093E90081E07F
:1032B00008959093E900242F762F50E0981731F06D
:1032C0007091EC002091ED005091F00021FD02C0C2
:1032D0009F5FE8CF3091EB003E7F3093EB00309161
:1032E000ED003D7F3093ED003091EB003160309385
:1032F000EB007093EC002093ED005093F0002091D0
:10330000EE0027FDE5CF80E0089580917D0287FFE4
:1033100013C08091E80082FF06C08091E8008B779F
:103320008093E800089580917C028111F2CF089586
:1033300080917C028115D9F38091E80080FFF8CF5D
:103340008091E8008E77ECCF2091E4003091E50089
:1033500095E6A9012091EC00822F817020FF06C024
:103360008091E80080FF06C080E008952091E80089
:1033700022FD1AC080917C02811589F0853089F088
:103380008091EB0085FD0FC02091E4003091E500B5
:1033900042175307F9F29150E1F684E0089582E074
:1033A000089583E0089581E008955FD066D0E0EE4F
:1033B000F0E0808181608083E8ED80818F77808379
:1033C00019BCA7EDB0E08C918E7F8C9380818F7EAD
:1033D000808310927B020895CF93DF9346D04DD027
:1033E000C8EDD0E088818F77888388818068888362
:1033F00088818F7D888319BC10927C02109278029C
:1034000010927A0210927902E0EEF0E080818B7FD8
:10341000808388818160888342E060E080E041DFD2
:10342000E1EEF0E080818E7F8083E2EE808181603A
:103430008083808188608083E0EE80818E7F8083BE
:10344000888180618883DF91CF910895E8EDF0E075
:1034500080818F7E8083E7ED80818160808384E03E
:1034600082BF81E080937B02B7CFE8EDF0E08081FE
:103470008E7F80831092E20008951092DA001092FD
:10348000E10008951F920F920FB60F9211242F930F
:103490003F934F935F936F937F938F939F93AF93DC
:1034A000BF93EF93FF938091E10082FF0AC0809168
:1034B000E20082FF06C08091E1008B7F8093E100F3
:1034C00027D28091DA0080FF18C08091D80080FF59
:1034D00014C08091DA008E7F8093DA008091D90049
:1034E00080FF8FC080E189BD82E189BD09B400FE03
:1034F000FDCF81E080937C023DDC8091E10080FF84
:1035000018C08091E20080FF14C08091E2008E7F9D
:103510008093E2008091E20080618093E2008091DC
:10352000D80080628093D80019BC85E080937C022B
:1035300033DC8091E10084FF28C08091E20084FFA9
:1035400024C080E189BD82E189BD09B400FEFDCFC0
:103550008091D8008F7D8093D8008091E1008F7E8C
:103560008093E1008091E2008F7E8093E200809161
:10357000E20081608093E20080917802811509F475
:1035800045C084E080937C020EDC8091E10083FFE3
:1035900027C08091E20083FF23C08091E100877FF4
:1035A0008093E10082E080937C0210927802809107
:1035B000E1008E7F8093E1008091E2008E7F809316
:1035C000E2008091E20080618093E20042E060E0EE
:1035D00080E067DE8091F00088608093F000D9DBA6
:1035E000FF91EF91BF91AF919F918F917F916F91DB
:1035F0005F914F913F912F910F900FBE0F901F90B1
:10360000189519BC10927C02C1DB77CF8091E30042
:1036100087FF02C083E0B6CF81E0B4CF1F920F9244
:103620000FB60F9211241F932F933F934F935F93E5
:103630006F937F938F939F93AF93BF93CF93DF93BA
:10364000EF93FF93E9EEF0E080811091EC008F7032
:1036500010FB112717F9182B1082C0EFD0E08881DA
:10366000877F888378941CD0E9EEF0E0108288810F
:10367000886088831F701083FF91EF91DF91CF9155
:10368000BF91AF919F918F917F916F915F914F917A
:103690003F912F911F910F900FBE0F901F90189583
:1036A000AAE2B0E0E5E5FBE175C18DE792E0FC013F
:1036B00001962091F100208322E085389207B9F726
:1036C0008CDB8091E80083FF37C080917D02909170
:1036D0007E029A3088F5E92FF0E0E856F24E45C1B7
:1036E000803889F0823841F5809181028F7087306F
:1036F00018F58093E9008091EB0085FB882780F91D
:103700001092E90006C080917A02880F90917902A8
:10371000892B9091E800977F9093E8008093F100C7
:103720001092F1008091E8008E7722C0811115C0BF
:1037300080917F02813001F18091E80083FF0AC00F
:103740008091E800877F8093E8008091EB008062A1
:103750008093EB00AA96E3E039C1823069F780914B
:103760007F02811579F01092E9008091E800877F4F
:103770008093E800CADDE0CF933009F080E08093C9
:103780007A02F1CF809181028F70282F215026304C
:1037900098F68093E9002091EB0020FFE4CF93306E
:1037A00031F48091EB0080628093EB00DCCF90914C
:1037B000EB0090619093EB0021E001C0220F8A950D
:1037C000EAF72093EA001092EA008091EB0088600B
:1037D000EBCF8111B1CF80917F028F77182F80912D
:1037E000E3008078812B8093E3008091E800877F5D
:1037F0008093E8008ADD8091E80080FFFCCF809113
:10380000E30080688093E30083E0111101C082E04F
:1038100080937C0291CF8058823008F08DCF8091C8
:103820007F02909180028C3D23E0920789F583E02E
:103830008A838AE289834FB7F894DE01139620E0E9
:103840003EE051E2E32FF0E050935700849120FFD7
:1038500003C082958F703F5F8F708A30B8F0895CAB
:103860008D931D922F5F243169F74FBF8091E8003F
:10387000877F8093E8006AE270E0CE01019654DC15
:103880008091E8008B778093E80056CF805DE8CF89
:103890006091810270918202AE014F5F5F4F86DBC3
:1038A000BC01892B09F448CF9091E800977F909351
:1038B000E80089819A8196DCE3CF803809F03CCF1B
:1038C0008091E800877F8093E80080917802809360
:1038D000F10028CF811130CF90917F02923008F013
:1038E0002BCF8091E800877F8093E8009093780247
:1038F0000CDD80917802811529F084E080937C02B0
:103900005BDA1ACF8091E30087FDF7CF81E0F6CF35
:103910000895CF9380917C02811591F08091E90008
:10392000C091EC008F70C0FBCC27C7F9C82B109258
:10393000E9008091E80083FDB3DECF70C093E90019
:10394000CF91089597FB072E16F4009406D077FDCB
:1039500008D048D007FC05D03EF4909581959F4F44
:103960000895709561957F4F0895EE0FFF1F0590A4
:10397000F491E02D09942F923F924F925F926F92B3
:103980007F928F929F92AF92BF92CF92DF92EF92EF
:10399000FF920F931F93CF93DF93CDB7DEB7CA1B70
:1039A000DB0B0FB6F894DEBF0FBECDBF09942A889B
:1039B000398848885F846E847D848C849B84AA8443
:1039C000B984C884DF80EE80FD800C811B81AA81D0
:1039D000B981CE0FD11D0FB6F894DEBF0FBECDBF9B
:1039E000ED010895AA1BBB1B51E107C0AA1FBB1F15
:1039F000A617B70710F0A61BB70B881F991F5A957B
:103A0000A9F780959095BC01CD010895FB01DC01DB
:103A100004C08D910190801921F441505040C8F7A5
:103A2000881B990B0895F999FECF92BD81BDF89A34
:103A3000992780B50895A8E1B0E042E050E020C0A9
:103A4000262FF999FECF92BD81BDF89A019700B457
:103A5000021639F01FBA20BD0FB6F894FA9AF99AF7
:103A60000FBE08950396272FECDFEADF252FE9DF4D
:103A7000242FE7CF0196272FE4DFE2CFDC01CB0133
:103A8000FC01F999FECF06C0F2BDE1BDF89A31966E
:103A900000B40D9241505040B8F70895F894FFCF0C
:103AA0007E037E03B503B5030C042804A603A60316
:103AB0002C049E04AB04AB04DF0F4C10E70FB10FD6
:103AC000B50FEB0FB90FEF0FFB0FC50F4510C90F67
:103AD000FF0FCD0F03102810D10F07102F10D70F95
:103AE0000D101510BD0FF30FC10FF70FDB0F1110E5
:103AF0001F1038104310AB0FE30F5310EC10F110F0
:103B0000F310F81008110811081108110811081114
:103B100008110811FA10FE100111061115111B11E0
:103B20001F112B1331131C13251337133D1343138C
:103B3000701B961B9C1B961B9C1BE91B0B1C9C1B48
:043B40005D1C6A1C82
:103B44000E022E02280850011E0A14010000010072
:103B54005315A616A1169C169716E200E900EA0072
:103B6400B500B600B700CD008301CC008A019201F4
:103B740094012102230224022502260227022A029A
:103B8400B300B4006F0070009F01CB019F02A0023C
:103B9400E200E900EA00B500B600B700CD008301F9
:103BA400CC008A01920194012102230224022502FD
:103BB400260227022A02B300B4006F0070009F019E
:0E3BC400CB019F02A0026697C6343591909403
:00000001FF
